:020000040800F2
:1000000000000220C93D00080D0800080F08000884
:100010001108000813080008150800080000000077
:1000200000000000000000000000000017080008A9
:1000300019080008000000001B0800081D0800083F
:10004000193E0008193E0008193E0008193E000834
:10005000193E0008193E0008193E0008193E000824
:10006000193E0008193E0008193E0008193E000814
:10007000193E0008193E0008193E0008193E000804
:10008000193E0008193E0008193E00080000000053
:10009000000000000000000000000000193E000801
:1000A000193E0008193E0008193E0008193E0008D4
:1000B000193E0008193E0008193E0008193E0008C4
:1000C000193E0008193E0008193E0008193E0008B4
:1000D000193E0008193E0008193E00080000000003
:1000E000193E0008193E0008193E000800000000F3
:1000F000000000000000000000000000193E0008A1
:1001000000000000193E0008193E0008193E0008D2
:1001100000000000000000000000000000000000DF
:10012000193E0008193E0008193E0008193E000853
:10013000193E000800000000000000000000000060
:10014000000000000000000000000000250800087A
:10015000193E0008193E0008193E0008193E000823
:10016000193E0008193E00080000000000000000D1
:10017000000000000000000000000000000000007F
:1001800000000000193E0008000000000000000010
:08019000193E0008193E0008A9
:100198000348044B834202D0034B03B1184770470E
:1001A8008C0100208C010020000000000548064951
:1001B8000B1AD90F01EBA301491002D0034B03B16D
:1001C800184770478C0100208C01002000000000B7
:1001D80010B5064C237843B9FFF7DAFF044B13B187
:1001E8000448AFF300800123237010BD8C01002068
:1001F800000000001C3E000808B5044B1BB1044970
:100208000448AFF30080BDE80840CFE700000000D5
:10021800900100201C3E000870B50D4E0D4D761B58
:10022800B61006D0002455F8043B01349847A6427E
:10023800F9D1094E094D761B03F0ECFDB61006D036
:10024800002455F8043B01349847A642F9D170BD03
:10025800943E0008943E0008983E0008943E00082A
:10026800830730B548D0541E002A3FD0CAB203468F
:1002780001E0013C3AD303F8012B9D07F9D1032C87
:100288002DD9CDB245EA05250F2C45EA054536D9C5
:10029800A4F1100222F00F0C03F1200EE6444FEAFD
:1002A800121C03F1100242E9045542E902551032CA
:1002B8007245F8D10CF1010214F00C0F03EB021295
:1002C80004F00F0C13D0ACF1040323F00303043340
:1002D800134442F8045B9342FBD10CF003042CB1A5
:1002E800CAB21C4403F8012B9C42FBD130BD6446C2
:1002F8001346002CF4D1F9E703461446BFE71A4623
:10030800A446E0E753B94AB9002908BF00281CBF32
:100318004FF0FF314FF0FF3000F074B9ADF1080C29
:100328006DE904CE00F006F8DDF804E0DDE902230B
:1003380004B070472DE9F047089D04468E46002B0F
:100348004DD18A42944669D9B2FA82F252B101FA81
:1003580002F3C2F1200120FA01F10CFA02FC41EA91
:10036800030E94404FEA1C48210CBEFBF8F61FFA16
:100378008CF708FB16E341EA034306FB07F19942B1
:100388000AD91CEB030306F1FF3080F01F81994264
:1003980040F21C81023E63445B1AA4B2B3FBF8F03E
:1003A80008FB103344EA034400FB07F7A7420AD9C5
:1003B8001CEB040400F1FF3380F00A81A74240F2ED
:1003C80007816444023840EA0640E41B00261DB158
:1003D800D4400023C5E900433146BDE8F0878B428D
:1003E80009D9002D00F0EF800026C5E9000130464C
:1003F8003146BDE8F087B3FA83F6002E4AD18B4226
:1004080002D3824200F2F980841A61EB03030120CF
:100418009E46002DE0D0C5E9004EDDE702B9FFDEBB
:10042800B2FA82F2002A40F09280A1EB0C014FEA66
:100438001C471FFA8CFE0126200CB1FBF7F307FBC3
:10044800131140EA01410EFB03F0884208D91CEB66
:10045800010103F1FF3802D2884200F2CB80434603
:10046800091AA4B2B1FBF7F007FB101144EA0144E2
:100478000EFB00FEA64508D91CEB040400F1FF3171
:1004880002D2A64500F2BB800846A4EB0E0440EA5F
:1004980003409CE7C6F12007B34022FA07FC4CEA68
:1004A800030C20FA07F401FA06F31C43F9404FEA5B
:1004B8001C4900FA06F3B1FBF9F8200C1FFA8CFE70
:1004C80009FB181140EA014108FB0EF0884202FAC4
:1004D80006F20BD91CEB010108F1FF3A80F0888085
:1004E800884240F28580A8F102086144091AA4B242
:1004F800B1FBF9F009FB101144EA014100FB0EFEC3
:100508008E4508D91CEB010100F1FF346CD28E45F1
:100518006AD90238614440EA0840A0FB0294A1EB82
:100528000E01A142C846A64656D353D05DB1B3EBDF
:10053800080261EB0E0101FA07F722FA06F3F1400F
:100548001F43C5E9007100263146BDE8F087C2F1B6
:100558002003D8400CFA02FC21FA03F3914001432E
:100568004FEA1C471FFA8CFEB3FBF7F007FB103667
:100578000B0C43EA064300FB0EF69E4204FA02F413
:1005880008D91CEB030300F1FF382FD29E422DD966
:10059800023863449B1B89B2B3FBF7F607FB16339B
:1005A80041EA034106FB0EF38B4208D91CEB01011B
:1005B80006F1FF3816D28B4214D9023E6144C91A9B
:1005C80046EA004638E72E46284605E70646E3E6AB
:1005D8001846F8E64B45A9D2B9EB020864EB0C0EB5
:1005E8000138A3E74646EAE7204694E74046D1E7C4
:1005F800D0467BE7023B614432E7304609E7644472
:10060800023842E7704700BFF0B58BB0002405946C
:10061800069407940894099401942B4B1A6B42F0A2
:1006280004021A631A6B02F004020192019A0294FE
:100638001A6B42F080021A631A6B02F0800202926F
:10064800029A03941A6B42F002021A631A6B02F0C0
:1006580002020392039A04941A6B42F001021A638D
:100668001B6B03F001030493049B184F22464FF4BD
:100678000051384600F0BDFD154D22464FF4E041CB
:10068800284600F0B6FD4FF4005305930126069660
:100698000794089405A9384600F0C4FC4FF4E043D9
:1006A800059306960794089405A9284600F0BAFC15
:1006B8001823059306940223079305A9284600F0FA
:1006C800B1FC0BB0F0BD00BF00380240000802408A
:1006D8000004024072B6FEE700B595B03022002152
:1006E80008A8FFF7BDFD0023039304930593069321
:1006F800079301931F4A116C41F080511164126CE9
:1007080002F080520192019A02931B4B1A6842F43C
:1007180040421A601B6803F440430293029B032380
:1007280008934FF48032099201220B9210220C9206
:1007380002220E924FF480010F910421109148215A
:1007480011911292139308A800F050F968B90F2379
:1007580003930021049105910691079103A800F0E5
:10076800ABFB20B915B05DF804FBFFF7B3FFFFF74B
:10077800B1FF00BF003802400070004010B500F023
:10078800D1FDFFF7A9FFFFF73FFF00F015FE00F0CE
:10079800F7F8002100E0013101291CDC0023022BBD
:1007A800F9DC01EB4100164A02440020D054013321
:1007B800F5E7134B5B7853B9114B9B78BBB9104BDA
:1007C800DB78CBB10921002000F086F803E019217D
:1007D800012000F081F80A4C204600F097F82378B1
:1007E800002BE6D00621012000F076F8F3E711216E
:1007F800032000F071F8EEE7642000F0BFFDEAE79F
:10080800A8010020FEE7FEE7FEE7FEE7FEE77047E7
:100818007047704708B500F09FFD08BD08B502484D
:1008280001F0F6FA08BD00BFC806002082B000211A
:1008380000910B4B5A6C42F480425A645A6C02F491
:1008480080420092009A01911A6C42F080521A6418
:100858001B6C03F080530193019B02B0704700BFEB
:100868000038024010B50C4B00EB4000084403EB85
:10087800C004E279A271A18853F8300000F0B2FCFC
:10088800003818BF0120E071A37913B910B1012015
:1008980000E0002010BD00BFB001002008B50A46E6
:1008A80002280AD003280ED0012800D008BD4FF432
:1008B8008051084800F09DFCF8E74FF400510548C6
:1008C80000F097FCF2E74FF48041024800F091FCF9
:1008D800ECE700BF0004024038B50A4C6070E170D4
:1008E800094D08222146284603F048FA142000F052
:1008F80045FD00236370E37008222146284603F073
:100908003DFA38BDE0010020EC01002010B5044696
:1009180001210846FFF7C2FF00210846FFF7A2FFA2
:10092800207000210120FFF79DFFE07000210120C9
:10093800FFF7B4FF01210220FFF7B0FF01210020DB
:10094800FFF790FF607001210846FFF78BFF2071C9
:1009580000210220FFF7A2FF01210320FFF79EFFDD
:1009680002210020FFF77EFFA07002210120FFF77F
:1009780079FF607100210320FFF790FF10BD000090
:10098800174B184A1A619A601A609A621A629A6139
:1009980008229A829A819A8010229A859A849A8348
:1009A80000200CE000EB400399180D4B03EBC1034A
:1009B80000219971D9710132022AF3DD0130012831
:1009C80001DC0022F8E7084B01221A7000225A7055
:1009D8009A70DA701A715A719A71DA71704700BF99
:1009E800B001002000040240E0010020002800F0CF
:1009F800E08170B582B00446036813F0010F3BD064
:100A08009F4B9B6803F00C03042B2CD09C4B9B68DA
:100A180003F00C03082B21D06368B3F5803F4FD057
:100A2800B3F5A02F52D0964B1A6822F480321A6080
:100A38001A6822F480221A606368002B50D000F0F4
:100A480097FC05468E4B1B6813F4003F14D100F049
:100A58008FFC401B6428F5D90320B1E1884B5B6803
:100A680013F4800FD8D0864B1B6813F4003F03D0D3
:100A78006368002B00F09F81236813F0020F54D0A5
:100A88007F4B9B6813F00C0F3ED07D4B9B6803F0A7
:100A98000C03082B33D0E368002B68D0794B012274
:100AA8001A6000F065FC0546754B1B6813F0020FD1
:100AB80054D100F05DFC401B0228F5D903207FE1EA
:100AC8006F4A136843F480331360B5E76C4B1A68B8
:100AD80042F480221A601A6842F480321A60ABE746
:100AE80000F046FC0546664B1B6813F4003FC3D074
:100AF80000F03EFC401B6428F5D9032060E1604B00
:100B08005B6813F4800FC6D15D4B1B6813F0020FAE
:100B180003D0E368012B40F05081594A136823F051
:100B2800F803216943EAC1031360236813F0080F2F
:100B380042D063696BB3534B0122C3F8802E00F097
:100B480017FC05464E4B5B6F13F0020F34D100F0D3
:100B58000FFC401B0228F5D9032031E1484A1368ED
:100B680023F0F803216943EAC1031360DDE7454B2D
:100B780000221A6000F0FCFB0546414B1B6813F08D
:100B8800020FD2D000F0F4FB401B0228F5D9032055
:100B980016E13C4B0022C3F8802E00F0E9FB054625
:100BA800374B5B6F13F0020F06D000F0E1FB401BE0
:100BB8000228F5D9032003E1236813F0040F77D046
:100BC8002F4B1B6C13F0805F33D1002301932C4B08
:100BD8001A6C42F080521A641B6C03F08053019324
:100BE800019B0125284B1B6813F4807F23D0A36841
:100BF800012B34D0052B38D0214B1A6F22F001027B
:100C08001A671A6F22F004021A67A368002B3DD0F6
:100C180000F0AEFB06461A4B1B6F13F0020F46D1CD
:100C280000F0A6FB801B41F288339842F3D90320D9
:100C3800C6E00025D6E7144A136843F480731360AE
:100C480000F096FB0646104B1B6813F4807FCED14C
:100C580000F08EFB801B0228F5D90320B0E0084A7B
:100C6800136F43F001031367CFE7054B1A6F42F088
:100C780004021A671A6F42F001021A67C5E700BF3B
:100C880000380240000047420070004000F070FB4E
:100C98000646524B1B6F13F0020F08D000F068FB9A
:100CA800801B41F288339842F3D9032088E0EDB9DC
:100CB800A369002B00F08380484A926802F00C0276
:100CC800082A51D0022B17D0454B00221A6600F093
:100CD8004FFB0446414B1B6813F0007F42D000F0E5
:100CE80047FB001B0228F5D9032069E03B4A136C37
:100CF80023F080531364DBE7394B00221A6600F0B7
:100D080037FB0546354B1B6813F0007F06D000F013
:100D18002FFB401B0228F5D9032051E0E369226A22
:100D28001343626A43EA8213A26A5208013A43EA09
:100D38000243E26A43EA0263284A5360284B0122CD
:100D48001A6600F015FB0446244B1B6813F0007F5D
:100D580006D100F00DFB001B0228F5D903202FE077
:100D680000202DE000202BE0012B2BD01B4B5B68D3
:100D780003F48001E269914226D103F03F02216A1F
:100D88008A4223D1616A47F6C0721A40B2EB811FCA
:100D98001ED103F44031A26A5208013AB1EB024F66
:100DA80018D103F07063E26AB3EB026F14D100202C
:100DB80006E001207047012002E0012000E0002049
:100DC80002B070BD0120FBE70120F9E70120F7E739
:100DD8000120F5E70120F3E70120F1E700380240A0
:100DE8000000474208B5314B9B6803F00C03042B05
:100DF80057D0082B57D12D4B5A6802F03F025B6839
:100E080013F4800F2AD0294B5968C1F3881C4FEA84
:100E18004C11B1EB0C006EEB0E0E4FEA8E1343EA49
:100E280090638101091A63EB0E03DB0043EA5173F7
:100E3800C90011EB0C0C43F10003590200234FEADF
:100E48004C2041EADC51FFF75DFA184B5B68C3F3AD
:100E5800014301335B00B0FBF3F025E0134B596805
:100E6800C1F3881C4FEA4C11B1EB0C006EEB0E0E6F
:100E78004FEA8E1343EA90638101091A63EB0E036C
:100E8800DB0043EA5173C90011EB0C0C43F100037A
:100E9800990200234FEA8C2041EA9C51FFF732FA6D
:100EA800D3E7034800E0034808BD00BF003802400C
:100EB80000127A000024F400002800F09B8070B52E
:100EC8000D4604464F4B1B6803F007038B4208D2BC
:100ED800CBB24C4A1370136803F007038B4240F0FF
:100EE8008B80236813F0020F17D013F0040F04D07F
:100EF800454A936843F4E0539360236813F0080F5E
:100F080004D0414A936843F4604393603E4A93682F
:100F180023F0F003A1680B439360236813F0010FDB
:100F280032D06368012B21D09A1E012A25D9364A6E
:100F3800126812F0020F61D033498A6822F0030266
:100F480013438B6000F014FA06462F4B9B6803F09E
:100F58000C036268B3EB820F16D000F009FA801B0D
:100F680041F288339842F0D9032042E0264A1268B9
:100F780012F4003FE0D101203BE0234A126812F04E
:100F8800007FD9D1012034E01E4B1B6803F0070312
:100F9800AB4207D9EAB21B4B1A701B6803F0070370
:100FA800AB422DD1236813F0040F06D0164A93687C
:100FB80023F4E053E1680B439360236813F0080FB0
:100FC80007D0114A936823F46043216943EAC103B7
:100FD8009360FFF707FF0C4B9B68C3F303130B4A9F
:100FE800D35CD8400A4B18600A4B186800F074F9B3
:100FF800002070BD012070470120FAE70120F8E7C2
:101008000120F6E7003C024000380240343E000868
:101018000800002004000020014B1868704700BF3A
:101028000800002000230F2B00F2D28070B582B098
:1010380060E085685E000324B44025EA0405CC68B6
:10104800B4402C438460456825EA02054C68C4F323
:1010580000129A402A4342605AE0DC08083450F8EB
:10106800246003F0070295000F22AA4026EA020E28
:101078000A69AA4042EA0E0240F824205CE00422F1
:1010880000E0002202FA0EF22A430234514D45F8DC
:101098002420514A94686FEA0C0224EA0C054E6831
:1010A80016F4801F01D04CEA04054B4CA560E46897
:1010B80002EA04054E6816F4001F01D04CEA040544
:1010C800454CE560646802EA04054E6816F4003F82
:1010D80001D04CEA0405404C6560246822404D6804
:1010E80015F4803F01D04CEA04023B4C22600133E6
:1010F8000F2B6BD801229A400C6804EA020C32EAE2
:101108000404F4D14C6804F00304013C012C90D988
:101118004A6802F00302032A09D0C4685D0003226A
:10112800AA4024EA02048A68AA402243C2604A68A4
:1011380002F00302022A90D004684FEA430E032209
:1011480002FA0EF224EA02044A6802F0030202FAE2
:101158000EF2224302604A6812F4403FC7D00022D0
:1011680001921E4A546C44F480445464526C02F454
:1011780080420192019A9C08A51C164A52F82550F3
:1011880003F003024FEA820E0F2202FA0EF225EA5A
:101198000205134A90423FF474AF02F58062904210
:1011A8000ED002F5806290420CD002F58062904227
:1011B8000AD002F5806290423FF461AF072261E7EE
:1011C80001225FE702225DE703225BE702B070BD00
:1011D800704700BF00380140003C01400038024021
:1011E800000002400369194201D001207047002025
:1011F80070470AB181617047090481617047000036
:10120800074AD36823F4E0631B041B0C000200F4B4
:10121800E060034343F0BF6343F40033D360704797
:1012280000ED00E000B5194BDB68C3F30223C3F1FE
:10123800070CBCF1040F28BF4FF0040C03F1040E97
:10124800BEF1060F18D9033B4FF0FF3E0EFA0CFC17
:1012580021EA0C0199400EFA03F322EA0303194329
:1012680000280BDB0901C9B200F1604000F56140BC
:1012780080F800135DF804FB0023E5E700F00F0099
:101288000901C9B2024B1954F4E700BF00ED00E0B0
:1012980014ED00E0002807DB00F01F0240090123DD
:1012A8009340024A42F82030704700BF00E100E056
:1012B8000138B0F1807F0BD24FF0E0235861054A26
:1012C800F02182F823100020986107221A617047E4
:1012D8000120704700ED00E010B504460E4B187869
:1012E8004FF47A73B3FBF0F30C4A1068B0FBF3F0D9
:1012F800FFF7DEFF68B90F2C01D901200AE00022B0
:1013080021464FF0FF30FFF78DFF054B1C60002092
:1013180000E0012010BD00BF0000002008000020F0
:101328000400002008B50B4B1A6842F400721A60DA
:101338001A6842F480621A601A6842F480721A606D
:101348000320FFF75DFF0F20FFF7C6FFFFF76EFAD8
:10135800002008BD003C0240034A1168034B1B787B
:101368000B441360704700BFE80100200000002014
:10137800014B1868704700BFE801002038B50446E3
:10138800FFF7F6FF0546B4F1FF3F02D0044B1B7888
:101398001C44FFF7EDFF401BA042FAD338BD00BF45
:1013A80000000020034AD2F8883043F47003C2F8E2
:1013B8008830704700ED00E008B500220B490C4862
:1013C80001F0F6FD48B90B49094801F008FE38B9A3
:1013D800074801F01EFE30B908BDFFF77BF9F2E7B8
:1013E800FFF778F9F4E7FFF775F9F5E70C00002047
:1013F800EC0100201801002012230B8000487047E0
:101408002800002004230B80004870473C0000207F
:10141800002393421ED200B510E00CF1370C01F8FE
:1014280013C000014FEA430C0CF1010C4FF0000E01
:1014380001F80CE00133DBB2934209D24FEA107C89
:10144800B0F1204FE9D20CF1300C01F813C0E8E7F5
:101458005DF804FB7047000038B50B4BD3F8100A51
:10146800D3F8144AD3F8183AC01800D138BD074D3C
:101478000822A91CFFF7CCFF042205F1120120461F
:10148800FFF7C6FFF2E700BF0070FF1F4000002013
:1014980008B51A230B80FFF7DFFF014808BD00BF1E
:1014A8004000002008B50A4628B90549054802F059
:1014B80000FB034808BD0249024802F0FAFAF8E7BF
:1014C800C8040020443E000810B50A46034C2146D3
:1014D800034802F0EEFA204610BD00BFC804002001
:1014E8005C3E000808B50A4628B90549054802F0D7
:1014F800E0FA034808BD0249024802F0DAFAF8E7C0
:10150800C8040020703E000808B50A4628B90549F5
:10151800054802F0CEFA034808BD0249024802F025
:10152800C8FAF8E7C80400207C3E000830B589B046
:101538000023039304930593069307930368B3F179
:10154800A04F01D009B030BD00250195164C236B82
:1015580043F001032363236B03F001030193019B11
:101568004FF4C053039302230493032306930A23DF
:10157800079303A90D48FFF755FD636B43F08003FC
:1015880063630295636C43F480436364636C03F4A0
:1015980080430293029B2A4629464320FFF742FED6
:1015A8004320FFF777FECDE70038024000000240F5
:1015B80008B500F29C41D0F8E00401F040FD08BDF8
:1015C80008B501EBC10300EB8303D3F86022D0F820
:1015D800E00401F006FE08BD08B501EBC10300EB0D
:1015E80083031A6AD0F8E00401F05EFE08BD08B56E
:1015F800D0F8E00401F0A0FD08BD10B50446C37999
:10160800022B09D10121D4F8E00401F076FDD4F8C9
:10161800E00401F040FD10BDFFF75CF8F2E70000C0
:1016280010B50446D0F8E00401F06AFD2268D2F84B
:10163800003E43F00103C2F8003EE37A23B1034AB7
:10164800136943F00603136110BD00BF00ED00E00D
:1016580008B5D0F8E00401F062FD08BD08B5D0F87F
:10166800E00401F091FD08BD08B5D0F8E00401F0F0
:1016780074FD08BD08B5D0F8E00401F09CFD08BD74
:1016880008B5D0F8E00401F098FD08BD02780AB169
:101698000020704710B503461548C0F8E034C3F879
:1016A800C8024FF0A0430360042303710222C271F1
:1016B8000023837142728372C37203738373C3738B
:1016C80000F0E8F880B90A4C8021204600F0A4FE1A
:1016D80040220021204600F079FE80220121204688
:1016E80000F074FE002010BDFEF7F4FFEBE700BF2A
:1016F800C8060020D0F8C83211F0800F08D101F0D8
:101708007F0101EBC10103EB810191F8560270479B
:1017180001F07F0101EBC10103EB8101887D704776
:1017280000487047AC0B00207047032805D8DFE855
:1017380000F005040205012070470320704708B532
:10174800D0F8C80200F027F9FFF7EFFF08BD08B589
:1017580094461A466346D0F8C80200F0FCF9FFF731
:10176800E4FF08BD08B5D0F8C80200F038FAFFF762
:10177800DCFF08BD08B5D0F8C80200F0B2FAFFF7E0
:10178800D4FF08BD08B5D0F8C80200F0EDFAFFF79D
:10179800CCFF08BD08B5D0F8C80200F0C9F9FFF7BA
:1017A800C4FF08BD08B5D0F8C80200F075FAFFF705
:1017B800BCFF08BD08B5D0F8C80200F048FAFFF72A
:1017C800B4FF08BD2DE9F04383B0D0F8008001EBE9
:1017D800C10300EB83039A6A5B6A9A4254D80746AE
:1017E8000C469B1A01EBC10200EB8202D2699A42B5
:1017F80000D31A4602F103094FEA990915E006F1E8
:1018080003094FEA9909BB7904EBC40507EB850581
:10181800296A0093B3B2E2B2404601F038F92B6A64
:1018280033442B62AB6A3344AB6208EB441303F5D1
:1018380010639B699BB24B4512D304EBC40207EBC0
:101848008202916A536A99420AD24BB15B1A04EB3D
:10185800C40207EB8202D6699E42D0D31E46CEE769
:1018680004EBC40007EB80077A6ABB6A9A420FD878
:1018780004F00F040123A340D8F8344824EA0304F1
:10188800C8F83448002000E0012003B0BDE8F08328
:101898000020FAE730B583B000287AD004460568FE
:1018A80090F89534C3B1032384F89534B5F1A04F6B
:1018B80017D0206800F09CFE237C8DF80030231D93
:1018C8000ECB206800F0D2FD70B1022384F8953465
:1018D8000125284603B030BD80F89434FFF726FE72
:1018E800E1E70023A371E4E70021206801F0EEFAA4
:1018F800024608B9034617E0022384F89534012507
:10190800E7E703EBC30104EB8101012048750B7580
:10191800CB8500200876C861086203EBC30104EB9D
:10192800810148620133DBB220799842E9D816E098
:1019380002EBC20304EB8303002183F8551283F8FA
:10194800542283F85812C3F85C12C3F8601202EBF1
:10195800C20304EB8303C3F864120132D2B290428B
:10196800E6D8237C8DF80030231D0ECB206800F0CC
:1019780095FE054620B1022384F895340125A8E791
:1019880000236374012384F89534206801F05BFA1E
:101998009FE701259DE7036890F89424012A1AD04F
:1019A80010B50446012280F89424DA6812F0400F3A
:1019B80002D0427B012A09D0206800F013FE20687B
:1019C80001F033FA002084F8940410BD9A6B42F4B5
:1019D80080329A63F0E702207047000070B5044631
:1019E8000D460068066C00EB411303F530639A68F6
:1019F800A179012911D038498E4256D03DB905EB5D
:101A0800C50304EB8303D3F86432002B5ED0E9B23C
:101A18002046FFF7D5FD002070BD12F0080F09D051
:101A28002E498E42F7D912F4004FF4D04FF40042F9
:101A38009A60F0E712F0200F02D020229A60EAE7BD
:101A480012F0280FE7D125498E4206D912F4004F2B
:101A580003D04FF400429A60DDE705EBC50204EBC2
:101A68008202D2F874121B69C3F31203CB1AC2F8AC
:101A780068327DB905EBC50204EB8202D2F8642214
:101A88006AB105EBC50204EB8202D2F860120B447E
:101A9800C2F86032E9B22046FFF792FDBBE704F2D4
:101AA8009C42012101F054FAF4E712F4004F03D0EC
:101AB8004FF400429A60AEE712F0200F01D02022C6
:101AC8009A60E9B22046FFF77BFDA4E704F29C4246
:101AD800002101F03DFA9AE70A31544F0A30544F79
:101AE80038B5044603681D6C03EB4113D3F8081B93
:101AF8000E4A954207D903F5306311F4004F02D01E
:101B08004FF400429A602046FFF752FD074B9D4272
:101B180002D9A379012B01D0002038BD04F29C42E0
:101B28000121206801F014FAF6E700BF0A30544F8B
:101B380090F89434012B0CD010B50446012380F89A
:101B480094344174006801F060F9002084F894042A
:101B580010BD0220704738B505468C4611F0800F3D
:101B680029D101F00F0E0EEBCE04A40004F5147475
:101B78000444211D0EEBCE0E00EB8E0E00208EF8D5
:101B880055020CF00F0C81F800C08A600B714A787E
:101B98000AB1A1F81AC0022B1CD095F89434012B75
:101BA8001BD0012385F89434286800F052FE0020E9
:101BB80085F8940438BD01F00F0000EBC0018900DE
:101BC80010312944043100EBC00005EB80000124EA
:101BD8004475D6E700234B71DFE70220EAE710B52A
:101BE80004460A4611F0800F20D101F00F0000EBE7
:101BF800C0039B0003F514732344191D00EBC000B8
:101C080004EB8000002380F8553202F00F020A70BE
:101C180094F89434012B18D0012384F89434206864
:101C280000F066FE002084F8940410BD01F00F0057
:101C380000EBC0039B0010332344191D00EBC000C8
:101C480004EB800001234375DFE70220EDE710B5C0
:101C5800144601F00F0C0CEBCC01890001F514714E
:101C6800014404310CEBCC0E00EB8E0ECEF8602252
:101C7800CEF864320023CEF868328EF855328EF8EA
:101C880054C28279012A04D0006800F017FF0020AE
:101C980010BDCEF87042F7E710B5144601F00F0CEE
:101CA8000CEBCC0189001031014404310CEBCC0E53
:101CB80000EB8E0ECEF82020CEF824300023CEF88C
:101CC800283001238EF815308EF814C082799A4294
:101CD80004D0006800F0F2FE002010BDCEF83040BD
:101CE800F7E738B501F00F050279AA4238D3044660
:101CF8000B4611F0800F1FD101EBC101890001F5DE
:101D080014710144043103EBC30300EB8303002285
:101D180083F8552201238B700D7094F89434012BAD
:101D280020D0012384F89434206801F013F885B199
:101D3800002084F8940438BD05EBC50189001031F2
:101D48000144043105EBC50300EB830301225A75F6
:101D5800E0E704F29C42A179206801F0F9F8E7E78E
:101D68000120E8E70220E6E701F00F0302799A4232
:101D780030D310B5044611F0800F1ED103EBC30118
:101D8800890001F514710144043103EBC30200EB2F
:101D98008202002082F8550200228A700B7094F8A3
:101DA8009434012B18D0012384F89434206800F06F
:101DB800FEFF002084F8940410BD03EBC3018900E2
:101DC80010310144043103EBC30200EB820201200D
:101DD8005075E1E7012070470220EDE708B511F0E2
:101DE800800F0CD101F00F0101EBC101890001F551
:101DF800147101440431006800F0EAFD08BD01F0E7
:101E08000F0101EBC1018900103101440431F2E7EF
:101E18002DE9F04F83B004460568284601F052F8D2
:101E280010B103B0BDE8F08F0646206801F019F83C
:101E38000028F6D005F50067BB68C3F30D23C4F886
:101E4800D434206801F00DF810F0020F04D0226895
:101E5800536903F002035361206801F002F810F09F
:101E6800100F13D02268936923F010039361D5F8FB
:101E7800208008F00F09C8F34343022B4BD0062BF0
:101E88006FD02268936943F010039361206800F0D3
:101E9800E8FF10F4002F76D1206800F0E2FF10F47C
:101EA800802F40F0E080206800F0DBFF0028C0F2BF
:101EB8006181206800F0D5FF10F4006F09D0BB687D
:101EC80013F0010F40F06E812268536903F4006338
:101ED8005361206800F0C5FF10F4805F40F0668110
:101EE800206800F0BEFF10F4005F40F0B381206866
:101EF80000F0B7FF10F0080F40F0C481206800F030
:101F0800B0FF10F0800F00F0D781AB6923F0800399
:101F1800AB610126C0E147F6F07318EA030FB0D0B1
:101F28004FEA181B4FEAC903019309EBC90A04EBEE
:101F38008A0AC8F30A12DAF86012284600F0E0FEAE
:101F4800CBF30A0BDAF860325B44CAF86032019BC3
:101F58004B4404EB8303D3F868325B44CAF8683215
:101F68008FE7082204F29C41284600F0C9FEC8F316
:101F78000A1809EBC90204EB8202D2F8683243441A
:101F8800C2F868327DE7206800F06FFF8046B146EE
:101F980035E005EB49130122C3F8082B49462046D2
:101FA800FFF71CFD3CE005EB49130822C3F8082B9A
:101FB80049462046FFF794FD35E009EBC90304EBD9
:101FC800830393F85732012B41D005EB49130222C2
:101FD800C3F8082B1AF0200F04D005EB4913202270
:101FE800C3F8082B1AF4005F05D005EB49134FF42A
:101FF8000052C3F8082B09F101094FEA5808B8F153
:10200800000F3FF449AF18F0010FF4D05FFA89FBD5
:102018005946206800F039FF824610F0010FB8D108
:102028001AF0080FBFD11AF0100F04D005EB4913AE
:102038001022C3F8082B1AF0020FCBD06B6913F0EB
:10204800800FBAD07B6843F480637B60B5E709EB07
:10205800C90304EB8303002283F85722594620461C
:10206800FFF7FCFAB1E7206800F007FF8046B146A9
:1020780025E059462046FFF7AFFA1AF0080F04D0BA
:1020880005EB49130822C3F808291AF0100F04D0E9
:1020980005EB49131022C3F808291AF0400F04D0A1
:1020A80005EB49134022C3F808291AF0020F40D162
:1020B8001AF0800F59D109F101094FEA5808B8F10F
:1020C800000F3FF4F0AE18F0010FF4D05FFA89FB6F
:1020D8005946206800F0E2FE824610F0010FCCD08D
:1020E80009F00F03012101FA03F27B6B23EA0203D3
:1020F8007B6305EB4913C3F80819A3798B42B8D160
:1021080009EBC90304EB8303D9691A6A0A441A6202
:10211800B9F1000FADD109EBC90304EB83035B6A86
:10212800002BA6D104F29C420121206800F010FF88
:102138009FE74946284600F061FA09EBC90304EB1A
:102148008303DB7D012B05D005EB49130222C3F87D
:102158000829ADE709EBC90304EB83030022DA750C
:1021680059462046FFF780FAEEE749462046FFF732
:1021780029FBA0E77B6823F001037B6094F8CC344B
:10218800012B08D02046FFF763FA2268536903F051
:10219800004353618DE6002184F8CC14204600F0FA
:1021A8003FF9F2E72046FFF73BFA8DE67B6823F01C
:1021B80001037B601021206800F020FA1AE005EB8B
:1021C80046134FF67F31C3F80819D3F8002922F4D3
:1021D8000012C3F80029C3F8081BD3F8002B22F417
:1021E8000012C3F8002BD3F8002B42F00062C3F8AA
:1021F800002B01362379B342E1D8FB6943F0011380
:10220800FB61E37BDBB1D7F8843043F00B03C7F8FD
:1022180084307B6C43F00B037B64D5F8003823F4DF
:10222800FE63C5F8003804F29C42A179206800F0EA
:102238008FFE2268536903F48053536150E67B692B
:1022480043F4005343F02B037B613B6943F00B03DA
:102258003B61E2E7206800F06AFE206800F0E8FAD7
:10226800E0712668FEF7D8FE0146E279304600F0B4
:1022780047F92046FFF7C1F92268536903F4005370
:10228800536134E62046FFF7B2F92268536903F038
:102298000803536132E601362379B3420CD906EBC1
:1022A800C60304EB830393F85732012BF3D1F1B241
:1022B8002046FFF793FDEEE7206800F0D2FD10F40A
:1022C800801F25D1206800F0CCFD10F4001F59D0E4
:1022D800012326E001362379B3421BD905EB4613C7
:1022E800D3F8002906EBC60304EB83031B7E012BFE
:1022F800F0D1002AEEDA06EBC60304EB83030122D1
:10230800DA7566F07F01C9B22046FFF767FDE1E79D
:102318000126E0E72268536903F480135361D1E78B
:10232800013322799A4228D905EB4312D2F8001BCF
:1023380003EBC30204EB820292F85822012AEFD180
:102348000029EDDA01F48031D4F8D42402F0010236
:102358009142E5D103EBC30204EB8202012182F82A
:102368005712AA6942F08002AA616A6912F0800FC6
:10237800D6D17B6843F400737B602268536903F409
:1023880000135361206800F06CFD10F0804F10D1ED
:10239800206800F066FD10F0040F3FF442AD23689A
:1023A8005D6815F0040F0DD1226853682B43536004
:1023B80037E52046FFF75EF92268536903F080434A
:1023C8005361E5E72046FFF75BF9EDE710B40468D1
:1023D800606A31B940EA0240A06200205DF8044B0F
:1023E80070478C46A36A00EB1340002308E003F112
:1023F800400104EB8101496800EB11400133DBB275
:102408000CF1FF318B42F2D340EA02400CF13F015C
:1024180004EB81014860E0E70368596200207047D7
:10242800704782B000230193019B01330193019B04
:10243800B3F1706F15D80369002BF5DA0023019307
:10244800036943F001030361019B01330193019B7D
:10245800B3F1706F08D8036913F0010FF4D10020AD
:1024680000E0032002B070470320FBE784B010B5FA
:10247800044603A880E80E009DF81130012B21D1F5
:10248800A36B23F48033A363E36823F4840323F06A
:102498004003E360E36823F44013E3609DF81830D9
:1024A800012B0AD02046FFF7BCFF9DF80E30012B08
:1024B8001CD0BDE8104004B07047E36843F48013B3
:1024C800E360EFE7E36843F04003E3602046FFF78B
:1024D800A8FF9DF8153023B9A36B43F48033A36399
:1024E800E3E7A36B23F48033A363DEE7A36843F039
:1024F8000603A360A36843F02003A360D9E70000A4
:10250800022A0AD00921C26822F47052C260C36844
:1025180043EA8123C36000207047234B0B44234ABE
:1025280093422FD9224B0B44224A93422CD9A1F52E
:102538007403A3F51053204A934227D9A1F183735A
:10254800A3F5E7431D4A934222D31D4B0B441D4A72
:1025580093421FD91C4B0B441C4A93421CD31C4B5F
:102568000B441C4A934219D3A1F1B773A3F55853EE
:10257800194A934214D3194B0B44194A934211D266
:102588000721C0E70F21BEE70E21BCE70D21BAE7FE
:102598000C21B8E70B21B6E70A21B4E70921B2E715
:1025A8000821B0E70621AEE7405327FFFF340C00AF
:1025B800401E1BFF3F420F007F4F120020D6130022
:1025C80060B6E5FE5FE3160000D3CEFE40771B0041
:1025D800C05BB3FEC091210020753800E05459FE5D
:1025E800E09C4100836843F001038360002070474A
:1025F800836823F0010383600020704782B00023C2
:102608000193019B01330193019BB3F1706F15D8BE
:102618000369002BF5DA00230193890141F02001B9
:102628000161019B01330193019BB3F1706F08D8DD
:10263800036913F0200FF4D1002000E0032002B05A
:1026480070470320FBE782B000230193019B01330D
:102658000193019BB3F1706F13D80369002BF5DA6E
:102668000023019310230361019B01330193019B14
:10267800B3F1706F08D8036913F0100FF4D100207C
:1026880000E0032002B070470320FBE7D0F80038D1
:102698001943C0F8001800207047000084B0F8B54E
:1026A800044607A880E80E00002306E003F1400274
:1026B80004EB82020021516001330E2BF6D99DF8FC
:1026C800266006BBD4F8043843F00203C4F8043883
:1026D800A36B43F40013A363A36B23F40023A36346
:1026E800A36B23F48023A3630023C4F8003E9DF862
:1026F8002130012B15D19DF81F306BB900212046E0
:10270800FFF7C4FF11E0A36B23F40013A363A36BCB
:1027180043F40023A363E7E701212046FFF7B6FF50
:1027280003E003212046FFF7B1FF10212046FFF701
:1027380065FF054600B101252046FFF784FF00B17B
:10274800012504F5006C0023CCF81030CCF81430C7
:10275800CCF81C300AE0CBB94FF00060C2F8000991
:1027680000220A614FF67F328A6001339DF81C10FF
:10277800994210D904EB431202F51061D2F800090E
:102788000028E8DB0020C2F80009E9E74FF0904094
:10279800C2F80009E4E700230AE0BBB14FF0904714
:1027A800C2F8007B002202614FF67F32826001335B
:1027B800994210D904EB431202F53060D2F8007B3D
:1027C800002FEADB0027C2F8007BEBE74FF0006739
:1027D800C2F8007BE6E7DCF8103023F48073CCF80D
:1027E80010300023A3616FF0804363619DF81E30B1
:1027F8001BB9A36943F01003A361A2690B4B1343F0
:10280800A3619DF822301BB1A36943F00803A361BB
:10281800012E04D02846BDE8F84004B07047A369EB
:1028280043F0804343F00403A361F3E700383C809E
:10283800D0F8083813F0060307D0022B07D0062B70
:1028480001D00F20704702207047002070470220F7
:10285800704710B591F800C04B78012B23D000F5D4
:10286800006ED0F81C380CF00F040122A24043EA95
:102878000243C0F81C3800EB4C10D0F8003B13F4AE
:10288800004F0ED1D0F8003B8A68C2F30A020979DA
:1028980042EA8142134343F0805343F40043C0F8B3
:1028A800003B002010BDD0F81C280CF00F0E03FAD6
:1028B8000EF39BB21343C0F81C3800EB4C10D0F851
:1028C800003913F4004FECD1D0F800398A68C2F30C
:1028D8000A02097942EA814242EA8C5C43EA0C0323
:1028E80043F0805343F40043C0F80039D9E70000AF
:1028F80030B40B784A78012A26D000EB4313D3F87A
:10290800002B002A52DBD0F83C480A7802F00F026C
:102918004FF0010C0CFA02F224EA0242C0F83C28FB
:10292800D0F81C28097801F00F010CFA01FC22EA02
:102938000C42C0F81C28D3F8001B234A0A40C3F8ED
:10294800002B002030BC704700EB4313D3F800295C
:10295800002A1EDBD0F83C580A7802F00F02012446
:1029680004FA02F292B225EA0202C0F83C28D0F832
:102978001C28097801F00F018C40A4B222EA040453
:10298800C0F81C48D3F80019104A0A40C3F80029B7
:10299800D7E7D3F8002942F00062C3F80029D3F83A
:1029A800002942F08042C3F80029D3E7D3F8002B6E
:1029B80042F00062C3F8002BD3F8002B42F08042AB
:1029C800C3F8002B9FE700BF0078F3EF007833ECE3
:1029D80010B483B0024600230193487801280BD035
:1029E8000B7802EB4313D3F8000B00282DDB0020F3
:1029F80003B05DF8044B70470B7802EB4313D3F830
:102A08000049002C01DB0020F2E7D3F8004944F02C
:102A18000064C3F800490B7802EB4313D3F800496C
:102A280044F08044C3F80049019B01330193019CA1
:102A380042F210739C42DBD80B7802EB4313D3F8B5
:102A48000039002BF0DB0020D2E7D3F8000B40F070
:102A58000060C3F8000B0B7802EB4313D3F8000BAC
:102A680040F08040C3F8000B019B013301930198AB
:102A780042F21073984208D80B7802EB4313D3F84C
:102A8800003B002BF0DB0020B2E70120B0E710B5D7
:102A98009DF8084084B903334FEA930E4FF0000CB9
:102AA80008E000EB023303F5805351F8044B1C6037
:102AB8000CF1010CF445F4D3002010BDF0B583B03F
:102AC8000C784B78012B2FD000EB441C0CF53063AD
:102AD8001D69ED0CED041D611D6925F0FF5525F4F8
:102AE800C0151D61002C40F0CC800C690CB18C68BD
:102AF8000C618C680C621D69C4F312042C431C61C0
:102B08001C6944F400241C61012A00F0DD800B7963
:102B1800012B00F0DF80DCF8003B43F00443CCF8E5
:102B2800003B002003B0F0BD0B6983BB00EB4413EE
:102B3800D3F8105925F0FF5525F4C015C3F81059DE
:102B4800D3F8105945F40025C3F81059D3F8105993
:102B5800ED0CED04C3F81059012A50D000EB4414D1
:102B6800D4F8003943F00443C4F800390B79012B39
:102B78006ED00B69002BD4D0D0F834380A7802F024
:102B88000F0101228A401343C0F83438C9E700EB2B
:102B9800441303F510631D69ED0CED041D611D69F7
:102BA80025F0FF5525F4C0151D61DCB90E698D6847
:102BB800AE4200D90D611D6945F400251D611D69EE
:102BC8000E69C6F3120C45EA0C051D610D79012D3D
:102BD800C2D11D6925F0C0451D611D6945F000552C
:102BE8001D61B9E71E690D698F683D44013DB5FB5C
:102BF800F7F5424F07EAC54535431D61DFE7CB6965
:102C08001BB100EB4412C2F814390B79012B08D020
:102C180000EB4410D0F8003943F00443C0F8003901
:102C28007FE7D0F8083813F4807F08D100EB44120E
:102C3800D2F8003943F00053C2F80039E8E700EB56
:102C48004412D2F8003943F08053C2F80039DFE764
:102C5800D0F8083813F4807F0CD1D4F8003943F049
:102C68000053C4F8003900920B8A0A78C968FFF744
:102C78000EFF56E7D4F8003943F08053C4F8003902
:102C8800F1E70C6954B91C698D68C5F312052C432A
:102C98001C611C6944F400241C6135E78D682C44D0
:102CA800013CB4FBF5F4A4B204FB05F50D621D6903
:102CB800124E06EAC4442C431C611C690D6AC5F314
:102CC80012052C431C611FE7CA68002A3FF41FAF96
:102CD8005A611CE7D0F8083813F4807F06D1DCF875
:102CE800003B43F00053CCF8003B14E7DCF8003B12
:102CF80043F08053CCF8003B0DE700BF0000F81FFD
:102D080000B583B0844608464FEA920E02F00302EB
:102D1800002305E00CF58051096840F8041B0133D5
:102D28007345F7D39AB10CF5805CDCF80030019359
:102D38004FF0000C5FFA8CF3D900019BCB4000F8F0
:102D4800013B0CF1010C013A92B2002AF2D103B016
:102D58005DF804FB0B784A78012A14D000EB431085
:102D6800D0F8002B002A06DB2BB1D0F8003B23F06B
:102D78008043C0F8003BD0F8003B43F40013C0F890
:102D8800003B0020704700EB4310D0F80029002AD0
:102D980006DB2BB1D0F8003923F08043C0F80039A6
:102DA800D0F8003943F40013C0F80039E9E70B788C
:102DB8004A78012A0ED000EB4310D0F8003B23F4E8
:102DC8000013C0F8003B0B79023BDBB2012B15D98D
:102DD8000020704700EB4310D0F8003923F40013AB
:102DE800C0F800390B79023BDBB2012BF0D8D0F8E0
:102DF800003943F08053C0F80039E9E7D0F8003BC8
:102E080043F08053C0F8003BE2E7D0F8003823F4E1
:102E1800FE63C0F80038D0F80038090101F4FE61FB
:102E28001943C0F8001800207047D0F8003E23F07E
:102E38000303C0F8003ED0F8043823F00203C0F8BA
:102E4800043800207047D0F8003E23F00303C0F890
:102E5800003ED0F8043843F00203C0F804380020DC
:102E680070474269806910407047D0F8183800F5FB
:102E78000060C0691840000C7047D0F8183800F599
:102E88000060C069184080B2704700EB4111D1F86A
:102E9800082B00F5006040691040704710B4D0F866
:102EA8001048D0F8343801F00F02D340DB01DBB210
:102EB800234300EB411000F51060806818405DF86E
:102EC800044B7047406900F00100704738B505466B
:102ED800C36823F0C043C360012913D019BBC3687A
:102EE80043F08043C36000240A20FEF747FA0A34FF
:102EF8002846FFF7E7FF08B1C72CF5D9C82C14D02E
:102F0800002038BDC36843F00053C36000240A2082
:102F1800FEF734FA0A342846FFF7D4FF0128EDD02B
:102F2800C72CF4D9EAE70120EBE70120E9E7D0F85C
:102F3800003923F4FF6323F00703C0F80039D0F801
:102F4800043843F48073C0F8043800207047000048
:102F580010B4046C154B9C4203D9D0F8003B002BED
:102F680016DB0024C0F8104BD0F8104B44F40024B2
:102F7800C0F8104BD0F8104B44F01804C0F8104BB0
:102F8800D0F8104B44F0C044C0F8104B012903D0CE
:102F980000205DF8044B7047C0F8142BD0F8003BB4
:102FA80043F08023C0F8003BF2E700BF0A30544FDB
:102FB80098B108B503460020C3F8B802C3F8C402A4
:102FC800C3F8D00209B1C3F8B412012183F89C12E6
:102FD8001A701846FEF75AFB08BD0320704710B553
:102FE80082B00023ADF8063089B10446C0F8B812A3
:102FF800CB6A23B10DF106009847C4F8D002D4F883
:10300800D8320133C4F8D832002002B010BD0320F2
:10301800FBE708B5FEF793FB08BD08B5D0F8B83252
:1030280013B11B68984708BD0020FCE708B5D0F825
:10303800B8325B68984700B908BD0320FCE738B58B
:10304800044600F2AA25284600F0C9F90123C4F86D
:103058009432B4F8B032C4F8983294F8AA1201F055
:103068001F03012B0DD0022B10D02BB101F08001D2
:103078002046FEF77FFB03E02946204600F084FB4C
:1030880038BD2946204600F0BAFBF9E72946204614
:1030980000F0F7FBF4E7F8B50446012380F89C320A
:1030A8000023C0F894324360C0F8A43280F8A032FC
:1030B800D0F8B832DBB15B68DBB10021984707462E
:1030C800C8B94023002211462046FEF740FB0126DE
:1030D800A4F864614025C4F860512B460022802181
:1030E8002046FEF734FBA68425623846F8BD002743
:1030F800E7E70027E5E70327E3E7017400207047C7
:1031080090F89C32DBB2042B04D090F89C32DBB2EE
:1031180080F89D32042380F89C320020704790F894
:103128009C32DBB2042B01D00020704790F89D320E
:10313800DBB280F89C32F7E708B590F89C32DBB236
:10314800032B01D0002008BDD0F8B832002BF9D0ED
:10315800DB69002BF6D09847F4E708B5D0F8D432ED
:10316800AE3350F823205AB190F89C32DBB2032BCF
:1031780001D0002008BD136A23B198470020F9E761
:103188000320F7E70020F5E708B5D0F8D432AE33CE
:1031980050F823205AB190F89C32DBB2032B01D0AF
:1031A800002008BD536A23B198470020F9E703209F
:1031B800F7E70020F5E70020704708B5012380F8FD
:1031C8009C32D0F8B83223B15B680179984710B9BE
:1031D80008BD0020FCE70320FAE700207047002024
:1031E800704738B504460D46002943D11346D0F838
:1031F8009422032A01D0084638BDD0F85C11D0F8D3
:103208006021914212D890F8AA3203F01F03012BD3
:1032180017D0022B1CD0284694F89C32DBB2032B23
:103228001BD0204600F07FFC2846E5E7891AC0F845
:103238005C118A4228BF0A46194600F06CFC2846F1
:10324800DAE790F8AE12FFF7C8FF0028E9D1E3E704
:1032580090F8AE12FFF7C3FFF7E700F1AE0354F89A
:1032680023301A69002ADCD0C4F8D4021B6920462E
:103278009847D6E701F07F01FFF7B1FF90B994F8BE
:103288009C32DBB2032BB7D100F1AE0354F82330E4
:103298009A69002AB0D0C4F8D4029B69294620460E
:1032A8009847A9E70020A7E738B504460D46002946
:1032B8004BD11346D0F89422022A07D094F8A002E2
:1032C80018B1002384F8A032284638BDC269016AC3
:1032D8008A420ED88A4218D094F89C32DBB2032B6B
:1032E80027D080212046FEF745FA204600F026FC2C
:1032F800E4E7521AC261194600F005FC00231A4699
:1033080019462046FEF756FAD8E783699942E3D86A
:10331800D0F898229342DFD20022114600F0F3FB46
:103328000021C4F898120B460A462046FEF742FAD6
:10333800C4E7D4F8B832DA68002AD2D00022C4F838
:10334800D422DB6820469847CBE741F08001FFF79D
:1033580046FF90B994F89C32DBB2032BB5D100F14B
:10336800AE0354F823305A69002AAED0C4F8D40208
:103378005B69294620469847A7E70020A5E7037818
:103388000A8813440B8003781844704742880378EE
:103398009A4218D930B583B004460D46ADF80630C8
:1033A8006288BDF806309A420AD90DF10601FFF786
:1033B800E6FF4378052BF3D18378AB42F0D100E0E8
:1033C800002003B030BD002070470346002002E013
:1033D8000130C0B201331A78002AF9D170470B784E
:1033E80003704B7843708B78CA7843EA0223438092
:1033F8000B794A7943EA022383808B79CA7943EAB5
:103408000223C380704710B504468021FEF7B2F945
:1034180000212046FEF7AEF910BD30B583B0044652
:103428000D460023ADF806304A88130A013B062BE7
:1034380000F2AB80DFE803F0041F33A9A98D9A00DE
:10344800D0F8B4321B680DF10601007C9847EA8871
:10345800002A00F0A380BDF80630002B00F0998008
:103468009A4228BF1A46ADF806200146204600F0C9
:103478003DFB03B030BD037C43B9D0F8B8329B6A3A
:103488000DF10600984702234370E0E7D0F8B83200
:10349800DB6A0DF10600984702234370D7E7D2B2E2
:1034A800052A52D8DFE802F003101D2A3744D0F865
:1034B800B4325B6823B10DF10601007C9847C6E77A
:1034C8002946FFF7A0FFD4E7D0F8B4329B6823B1B0
:1034D8000DF10601007C9847B9E72946FFF793FFED
:1034E800C7E7D0F8B432DB6823B10DF10601007CE0
:1034F8009847ACE72946FFF786FFBAE7D0F8B43219
:103508001B6923B10DF10601007C98479FE7294606
:10351800FFF779FFADE7D0F8B4325B6923B10DF15D
:103528000601007C984792E72946FFF76CFFA0E761
:10353800D0F8B4329B6923B10DF10601007C98479D
:1035480085E72946FFF75FFF93E72946FFF75BFF0B
:103558008FE7037C33B9D0F8B8325B6B0DF1060006
:10356800984774E72946FFF74EFF82E7037C43B983
:10357800D0F8B8321B6B0DF106009847072343704B
:1035880065E72946FFF73FFF73E72946FFF73BFF4B
:103598006FE729462046FFF736FF6AE7204600F026
:1035A800C2FA66E738B504468B88FBB9CB88EBB915
:1035B8004B887F2B1AD803F07F0590F89C32DBB23A
:1035C800032B0CD080F89E522946FEF7E3F82046DC
:1035D80000F0A9FA35B1022384F89C3209E0FFF71C
:1035E80012FF06E0012384F89C3202E02046FFF730
:1035F8000AFF38BD70B504460E468D782F4B1D70F6
:10360800012D10D890F89C32DBB2022B0FD0032B7F
:1036180026D0FFF7F8FE294B19782046FFF706FD5C
:103628000325284670BDFFF7EEFE0325F9E7A5B18F
:1036380045602946FFF7F1FC054638B1314620467A
:10364800FFF7E1FE022384F89C32EAE7204600F007
:103658006AFA032384F89C32E3E700F064FAE0E7AF
:10366800CDB141688D4225D0C9B2FFF7DFFC134BBD
:10367800197861602046FFF7D0FC0546B0B13146A5
:103688002046FFF7C0FE21792046FFF7CFFC022332
:1036980084F89C32C5E7022380F89C3245602946AD
:1036A800FFF7C4FC204600F03EFABAE7204600F0D7
:1036B8003AFAB6E700F037FA0025B2E7C00B002067
:1036C80008B5CB88012B0BD190F89C32DBB2022BCA
:1036D80009D9032B09D10122011D00F007FA01E0E5
:1036E800FFF791FE08BD5BB213B9FFF78CFEF9E74F
:1036F8000146002341F8083F012200F0F7F9F1E7FD
:1037080008B590F89C32013B022B12D8CB88022BCB
:103718000CD10123C360D0F8A4320BB10323C360DA
:10372800022200F10C0100F0E1F908BDFFF76BFE81
:10373800FBE7FFF768FEF8E708B54B88012B04D0D4
:10374800022B07D0FFF75FFE08BDC0F8A43200F0D7
:10375800EAF9F9E78B881B0A80F8A03200F0E3F950
:10376800F2E708B590F89C32013B022B09D84B8848
:10377800012B00D008BD0023C0F8A43200F0D3F913
:10378800F8E7FFF740FEF5E738B50C7804F0600479
:10379800202C06D0402C04D06CB1FFF734FE002456
:1037A80007E0D0F8D432AE3350F823309B689847FE
:1037B8000446204638BD4D78092D1DD8DFE805F0B0
:1037C80012191C161C08051C0F0BFFF726FEF0E744
:1037D800FFF7E8FEEDE7FFF70DFF0446E9E7FFF71F
:1037E8006FFFE6E7FFF78CFF2C46E2E7FFF7A4FF41
:1037F800DFE7FFF7B6FFDCE7FFF705FED9E770B5AF
:1038080005460C460B7803F06003202B07D0402BAD
:1038180005D023B1FFF7F7FD0026304670BD95F8B7
:103828009C32013B022B26D82179012905D9214652
:103838002846FFF7E8FD0026EFE72846FFF7CDFC0E
:1038480068B900F1AE0255F82220916889B1C5F82F
:10385800D4029368214628469847064600E0032686
:10386800E388002BD9D1002ED7D1284600F05BF988
:10387800D3E70326F4E721462846FFF7C4FD0026D0
:10388800CBE72DE9F04106460D468B88DFB20C7870
:1038980004F06004202C08D0402C06D0DCB1FFF7DF
:1038A800B2FD00242046BDE8F08139463046FFF7D6
:1038B80096FC0446002840F0F880C6F8D40200F1CF
:1038C800AE0356F823309B68002BEBD029463046D0
:1038D80098470446E6E791F80180B8F1010F31D026
:1038E800B8F1030F05D0B8F1000F67D0FFF78BFDD3
:1038F800D8E790F89C32DBB2022B04D0032B12D00D
:10390800FFF781FDCEE70FB1802F04D1294630465D
:10391800FFF779FDC6E73946FDF72CFF80213046D1
:10392800FDF728FFBEE74B8823B91FB1802F01D0D0
:10393800CB881BB1304600F0F6F8B3E73946FDF7FF
:1039480019FFF7E790F89C32DBB2022B04D0032B67
:1039580012D0FFF758FDA5E70FB1802F04D12946F3
:103968003046FFF750FD9DE73946FDF703FF8021FC
:103978003046FDF7FFFE95E74B88002B92D117F0F4
:103988007F0F17D1304600F0CEF839463046FFF7A2
:1039980026FC002886D1C6F8D40200F1AE0256F8FB
:1039A80022209268002A00F08280294630469047FB
:1039B800044677E73946FDF7E5FEE3E790F89C22F1
:1039C800D2B2022A05D0032A27D0FFF71CFD4446AD
:1039D80068E70FB1802F13D113F0800F14D107F0CF
:1039E8007F0707EB8707B90001F5A8713144043157
:1039F80000230B600222304600F078F8444651E775
:103A0800FFF701FD44464DE707F07F0707EB8707FF
:103A1800B900103131440431EAE75BB2002B1FDBF7
:103A280007F00F0202EB820200EB8202B2F8642177
:103A38001AB3002B25DB07F07F0303EB83039C00FD
:103A480004F5A874344404340FB1802F22D1002324
:103A5800236002222146304600F048F8444621E718
:103A680007F00F0202EB820200EB8202928C002A1E
:103A7800DFD1FFF7C8FC444614E7FFF7C4FC44460F
:103A880010E707F07F0303EB83039C0010343444F2
:103A98000434D9E739463046FDF72CFE10B101232E
:103AA8002360D6E700232360D3E70024FAE6044620
:103AB800F8E6D0B170B50D4616460446FFF785FC0A
:103AC800431C5B009BB233802B7003236B70022373
:103AD80007E0EA5401345A1CD2B20021A954023337
:103AE800DBB22278002AF4D170BD704708B51346BE
:103AF8000222C0F894228361C3610A460021FDF7BF
:103B080051FE002008BD08B513460A460021FDF7FE
:103B180049FE002008BD08B513460A460021FDF7F6
:103B280049FE002008BD08B50422C0F894220023ED
:103B38001A461946FDF736FE002008BD08B50522CD
:103B4800C0F8942200231A461946FDF733FE0020D8
:103B580008BDD0F8D432B03350F8233000201873A1
:103B6800704700000A230380004870478001002046
:103B780010B5044681210548FFF708FC08B10A2260
:103B8800827122232380014810BD00BF500100200C
:103B980010B5044681210548FFF7F8FB08B10A2251
:103BA800827122232380014810BD00BF50010020EC
:103BB80010B5044681210548FFF7E8FB08B1072244
:103BC800827122232380014810BD00BF50010020CC
:103BD80030B583B0D0F8D432B03350F82330002257
:103BE800ADF80620002B00F082800C7814F06004F9
:103BF80025D0202C75D14A78023A092A1BD8DFE84B
:103C080002F014091A1A1A1A1A1A0F058A781A6071
:103C1800002469E001221946FFF768FF002463E0E9
:103C28004A88120A5A6000245EE00122191DFFF733
:103C38005DFF002458E0FFF7E6FB032454E04D78CD
:103C48000B2D4AD8DFE805F006504949494916497D
:103C580049492E3D90F89C32DBB2032B03D0FFF785
:103C6800D2FB032440E002220DF10601FFF73EFFDC
:103C78002C4639E04B881B0A222B09D0212B0DD169
:103C8800CA88092A28BF09221A49FFF72FFF2BE003
:103C9800CA88BB2A28BFBB221749F6E7FFF7B3FB40
:103CA800032421E090F89C22D2B2032A03D0FFF724
:103CB800AAFB032418E0012203F10801FFF716FF0D
:103CC80012E090F89C22D2B2032A02D18A789A6034
:103CD8000AE0FFF798FB032406E0FFF794FB0324B0
:103CE80002E0FFF790FB0324204603B030BD032415
:103CF800FAE700BF740100205C00002010B50446FC
:103D08008121FDF72FFD002323876387D4F8D43260
:103D1800B03354F8230038B1FDF706FDD4F8D43297
:103D2800B033002244F82320002010BD38B50446E3
:103D38001020FDF7F5FCB0B10546D4F8D432B03305
:103D480044F82300C4F8BC02237CA3B90723638783
:103D58000823032281212046FDF7F9FC012323874C
:103D68000020287338BDD4F8D432B033002244F888
:103D780023200220F6E70A236387E9E710B5D0F885
:103D8800D43203F1B00C50F82C30BBB190F89CC27F
:103D98005FFA8CFCBCF1030F02D00024204610BD52
:103DA8001C7B0CB10024F9E74FF0010C83F80CC020
:103DB80013460A468121FDF7F5FCEFE70324EDE7FA
:103DC800DFF834D0FDF7EEFA0C480D490D4A002310
:103DD80002E0D458C4500433C4188C42F9D30A4AB8
:103DE8000A4C002301E013600432A242FBD3FCF723
:103DF80013FAFCF7C3FC7047000002200000002003
:103E08008C0100209C3E00088C010020C40B00207F
:103E1800FEE70000F8B500BFF8BC08BC9E46704736
:0C3E2800F8B500BFF8BC08BC9E4670470F
:103E34000000000000000000010203040607080956
:103E440053544D33322048756D616E20696E74652C
:103E5400726661636500000053544D6963726F6557
:103E64006C656374726F6E69637300004849442023
:103E7400436F6E666967000048494420496E746563
:083E8400726661636500000035
:083E8C00B0C4FF7F010000003B
:043E9400010200081F
:043E9800D901000844
:103E9C0001000000100000000024F40001140008D0
:103EAC000D140008D1140008AD1400089914000872
:103EBC00ED1400081115000812010002000000406A
:103ECC0083042D57000201020301000004030904BE
:103EDC001A030000000000000000000000000000B9
:103EEC0000000000000000000000000005010906B1
:103EFC00A1018501050719E029E7150025017501C8
:103F0C00950881027508950181010507190029653D
:103F1C0015002565750895058100C0050C0901A1E2
:103F2C0001850219002A3C021500263C02950175F8
:103F3C00108100C005010980A10185031981298325
:103F4C001500250175019503810295058101C006B7
:103F5C0001FF0901A1018504950175081501250AC8
:103F6C000920B1030923B103254F0921B1032530E1
:103F7C000922B10395030924B103C00601FF09010D
:103F8C00A1018505950175081501250A0920B103C4
:103F9C000923B103254F0921B10325300922B103AF
:103FAC0095030924B103C000353D0008053D000808
:103FBC00D93B000800000000000000005B3B00083B
:103FCC0000000000000000000000000000000000E5
:103FDC00B93B0008993B0008793B00086D3B000891
:103FEC0009022200010100E0320904000001030172
:103FFC00010009211101000122BB00070581030802
:10400C00000A000009211101000122BB0000000080
:0C401C000A060002000000400100000045
:0400000508003DC9E9
:00000001FF
